:020000040000FA
:0400000052EF00F0CB
:100008004582FACF16F0FBCF17F0D9CF18F0DACF28
:1000180019F0F2AC39D0A0B6A1A603D099EC2DF016
:1000280033D09DB69EA603D0B8EC1AF02DD0A3BC51
:10003800A4AC03D097EC2DF027D0A3BEA4AE03D078
:1000480091EC19F021D09DB89EA809D001D81CD0F8
:1000580005000201FA6E9751FD6E98510BD09DBABA
:100068009EAA0DD001D810D005000201FA6E955154
:10007800FD6E9651FE6EF850FF6EFA501200A0B257
:10008800A1A202D0B5EC29F019C0DAFF18C0D9FF37
:1000980017C0FBFF16C0FAFF4592110051EF24F07C
:1000A80083EC2DF00009D8B42AD0E4C097F0E5C05D
:1000B80098F0E6C099F07DEC23F097C08DF398C0D6
:1000C8008EF3E7C06BF1E8C06CF1E9C06DF18DC348
:1000D8006EF18EC36FF1DEC070F1DFC071F1E0C068
:1000E80072F1E1C073F1E2C074F1E3C075F1DBC0F5
:1000F80076F1DCC077F1DDC078F1EBEC26F025EC89
:1001080027F00009D8B41200010E00EC2CF01AC038
:1001180022F01BC023F0A4EC2CF022C02EF123C047
:100128002FF124C030F1C00E0001756F7F0E766F7D
:10013800440E776F2EC172F02FC173F030C174F086
:10014800C0EC21F072C081F073C082F074C083F0FB
:10015800330E0001846F530E856F400E866FCBEC13
:1001680020F081C02BF182C02CF183C02DF1400E0C
:100178000001846F1C0E856F460E866F2BC181F0BF
:100188002CC182F02DC183F0CBEC20F081C072F03D
:1001980082C073F083C074F02BC16FF02CC170F073
:1001A8002DC171F0330E00016C6F530E6D6F400E50
:1001B8006E6FAAEC2AF06CC075F06DC076F06EC058
:1001C80077F0C0EC21F072C028F173C029F174C037
:1001D8002AF1000E0001C46F800EC56F3F0EC66F76
:1001E80028C1C1F029C1C2F02AC1C3F0AFEC1DF08B
:1001F800C1C06EF3C2C06FF3C3C070F36EC381F0A9
:100208006FC382F070C383F0000E0001846F200E6C
:10021800856F410E866FCBEC20F081C068F382C0F9
:1002280069F383C06AF368C375F069C376F06AC37B
:1002380077F0400E0001726F1C0E736F460E746FDC
:10024800C0EC21F072C081F073C082F074C083F0FA
:10025800000E0001846FFA0E856F430E866FCBEC9B
:1002680020F081C01CF182C01DF183C01EF1020E76
:1002780000EC2CF01AC022F01BC023F0A4EC2CF0E8
:1002880022C02EF123C02FF124C030F1C00E00018E
:10029800756F7F0E766F440E776F2EC172F02FC187
:1002A80073F030C174F0C0EC21F072C081F073C0FB
:1002B80082F074C083F0330E0001846F530E856F93
:1002C800400E866FCBEC20F081C02BF182C02CF160
:1002D80083C02DF1400E0001846F1C0E856F460E01
:1002E800866F2BC181F02CC182F02DC183F0CBEC3D
:1002F80020F081C072F082C073F083C074F02BC10B
:100308006FF02CC170F02DC171F0330E00016C6FCD
:10031800530E6D6F400E6E6FAAEC2AF06CC075F02C
:100328006DC076F06EC077F0C0EC21F072C028F195
:1003380073C029F174C02AF1000E0001C46F800E49
:10034800C56F3F0EC66F28C1C1F029C1C2F02AC1CE
:10035800C3F0AFEC1DF0C1C06EF3C2C06FF3C3C0F1
:1003680070F36EC381F06FC382F070C383F0000E28
:100378000001846F200E856F410E866FCBEC20F054
:1003880081C068F382C069F383C06AF368C375F0FB
:1003980069C376F06AC377F0400E0001726F1C0ED5
:1003A800736F460E746FC0EC21F072C081F073C099
:1003B80082F074C083F0000E0001846FFA0E856F1E
:1003C800430E866FCBEC20F081C01FF182C020F174
:1003D80083C021F11CC163F01DC164F01EC165F02A
:1003E8001FC160F020C161F021C162F0DAEC1CF09D
:1003F80060C072F061C073F062C074F0000E00015A
:10040800756F000E766F400E776FC0EC21F072C0EA
:1004180025F173C026F174C027F125C1E4F026C187
:10042800E5F027C1E6F04A0E0001C96F030ECA6F56
:10043800F50ECB6F7F0ECC6F25C1CDF026C1CEF067
:1004480027C1CFF046EC2AF022EE3DF013EE3DF046
:100458000C0EDBCFE3FFE806FCE23D0E1A6E030E3E
:100468001B6E4A0E1C6E030E1D6E68EC2AF07EECA5
:100478002CF03D0E0001606F030E616F010E626F7C
:1004880020EC13F00B0E01017A6F260E796F5D0ECA
:10049800E82EFED7792FFCD77A2FFAD700D086EC32
:1004A8002DF00009D8A413D025C11AF026C11BF0DD
:1004B80027C11CF0000E1D6EF00E1E6E410E1F6E41
:1004C8005FEC27F0D8B002D0898001D0899025EC64
:1004D80027F00009D8B4120083EC2DF00009D8B435
:1004E8002AD0E4C097F0E5C098F0E6C099F07DEC1A
:1004F80023F097C08DF398C08EF3E7C06BF1E8C086
:100508006CF1E9C06DF18DC36EF18EC36FF1DEC081
:1005180070F1DFC071F1E0C072F1E1C073F1E2C0C7
:1005280074F1E3C075F1DBC076F1DCC077F1DDC0B2
:1005380078F1EBEC26F0030E00EC2CF01AC022F058
:100548001BC023F0A4EC2CF022C06BF323C06CF387
:1005580024C06DF3C00E0001756F7F0E766F440ED8
:10056800776F6BC372F06CC373F06DC374F0C0EC3B
:1005780021F072C081F073C082F074C083F0330E32
:100588000001846F530E856F400E866FCBEC20F010
:1005980081C086F382C087F383C088F3400E0001D0
:1005A800846F1C0E856F460E866F86C381F087C3E5
:1005B80082F088C383F0CBEC20F081C072F082C057
:1005C80073F083C074F086C36FF087C370F088C37C
:1005D80071F0330E00016C6F530E6D6F400E6E6F2D
:1005E800AAEC2AF06CC075F06DC076F06EC077F09A
:1005F800C0EC21F072C089F373C08AF374C08BF326
:1006080089C39CF08AC39DF08BC39EF0B7EC1FF0A2
:100618009CC071F39DC072F39EC073F3000E00017D
:10062800C46F400EC56F400EC66F71C3C1F072C370
:10063800C2F073C3C3F0AFEC1DF0C1C074F3C2C005
:1006480075F3C3C076F389C39CF08AC39DF08BC34E
:100658009EF0B7EC1FF09CC077F39DC078F39EC066
:1006680079F3F60E0001846FB70E856F330E866F2F
:1006780074C381F075C382F076C383F0CBEC20F0AD
:1006880081C063F082C064F083C065F01D0E000174
:10069800846F760E856F390E866F77C381F078C3C5
:1006A80082F079C383F0CBEC20F081C060F082C087
:1006B80061F083C062F0DAEC1CF060C07AF361C0CC
:1006C8007BF362C07CF385C163F086C164F087C1A7
:1006D80065F07AC360F07BC361F07CC362F0DAEC4A
:1006E8001CF060C075F061C076F062C077F0000E53
:1006F8000001726F800E736F3F0E746FC0EC21F0B3
:1007080072C07DF373C07EF374C07FF37DC360F065
:100718007EC361F07FC362F0800E0001636F880EB4
:10072800646FC30E656FDAEC1CF060C016F161C02F
:1007380017F162C018F1040E00EC2CF01AC022F078
:100748001BC023F0A4EC2CF022C06BF323C06CF385
:1007580024C06DF3C00E0001756F7F0E766F440ED6
:10076800776F6BC372F06CC373F06DC374F0C0EC39
:1007780021F072C081F073C082F074C083F0330E30
:100788000001846F530E856F400E866FCBEC20F00E
:1007980081C086F382C087F383C088F3400E0001CE
:1007A800846F1C0E856F460E866F86C381F087C3E3
:1007B80082F088C383F0CBEC20F081C072F082C055
:1007C80073F083C074F086C36FF087C370F088C37A
:1007D80071F0330E00016C6F530E6D6F400E6E6F2B
:1007E800AAEC2AF06CC075F06DC076F06EC077F098
:1007F800C0EC21F072C089F373C08AF374C08BF324
:1008080089C39CF08AC39DF08BC39EF0B7EC1FF0A0
:100818009CC071F39DC072F39EC073F3000E00017B
:10082800C46F400EC56F400EC66F71C3C1F072C36E
:10083800C2F073C3C3F0AFEC1DF0C1C074F3C2C003
:1008480075F3C3C076F389C39CF08AC39DF08BC34C
:100858009EF0B7EC1FF09CC077F39DC078F39EC064
:1008680079F3F60E0001846FB70E856F330E866F2D
:1008780074C381F075C382F076C383F0CBEC20F0AB
:1008880081C063F082C064F083C065F01D0E000172
:10089800846F760E856F390E866F77C381F078C3C3
:1008A80082F079C383F0CBEC20F081C060F082C085
:1008B80061F083C062F0DAEC1CF060C07AF361C0CA
:1008C8007BF362C07CF385C163F086C164F087C1A5
:1008D80065F07AC360F07BC361F07CC362F0DAEC48
:1008E8001CF060C075F061C076F062C077F0000E51
:1008F8000001726F800E736F3F0E746FC0EC21F0B1
:1009080072C07DF373C07EF374C07FF37DC360F063
:100918007EC361F07FC362F0800E0001636F880EB2
:10092800646FC30E656FDAEC1CF060C019F161C02A
:100938001AF162C01BF116C163F017C164F018C147
:1009480065F019C160F01AC161F01BC162F0DAEC00
:100958001CF060C072F061C073F062C074F0000EE9
:100968000001756F000E766F400E776FC0EC21F0B6
:1009780072C08FF373C090F374C091F38FC3E7F024
:1009880090C3E8F091C3E9F0800E0001C96F030E2F
:10099800CA6FF50ECB6F7F0ECC6F8FC3CDF090C3AF
:1009A800CEF091C3CFF046EC2AF022EE00F013EE21
:1009B80000F00F0EDBCFE3FFE806FCE20B0E0101AF
:1009C8007A6F260E796F5D0EE82EFED7792FFCD749
:1009D8007A2FFAD700D0000E1A6E030E1B6E800E07
:1009E8001C6E030E1D6E68EC2AF07EEC2CF0000ED7
:1009F8000001606F030E616F010E626F20EC13F04F
:100A08000B0E01017A6F260E796F5D0EE82EFED768
:100A1800792FFCD77A2FFAD700D086EC2DF0000971
:100A2800D8A4D7D08FC31AF090C31BF091C31CF081
:100A3800000E1D6EA00E1E6E410E1F6E5FEC27F09D
:100A4800D8A034D08FC31AF090C31BF091C31CF008
:100A5800000E1D6EC80E1E6E410E1F6E5FEC27F055
:100A6800D8B024D0000E0001FF6F010EFE6F000EFB
:100A78001F6E010E1E6E90EC28F07EEC2CF0C90E55
:100A88000001606F7F0E616F010E626F20EC13F042
:100A98000B0E01017A6F260E796F5D0EE82EFED7D8
:100AA800792FFCD77A2FFAD700D093D08FC31AF0BA
:100AB80090C31BF091C31CF0000E1D6EC80E1E6E75
:100AC800410E1F6E5FEC27F0D8A027D08FC31AF015
:100AD80090C31BF091C31CF0000E1D6EE00E1E6E3D
:100AE800410E1F6E5FEC27F0D8B017D0000E000142
:100AF800FF6F020EFE6F000E1F6E020E1E6E90EC50
:100B080028F07EEC2CF0D10E0001606F7F0E616F33
:100B1800010E626F20EC13F0BBD78FC31AF090C39D
:100B28001BF091C31CF0000E1D6EE00E1E6E410EF0
:100B38001F6E5FEC27F0D8A027D08FC31AF090C3A0
:100B48001BF091C31CF0000E1D6EF00E1E6E410EC0
:100B58001F6E5FEC27F0D8B017D0000E0001FF6FB2
:100B6800030EFE6F000E1F6E030E1E6E90EC28F033
:100B78007EEC2CF0D90E0001606F7F0E616F010EC4
:100B8800626F20EC13F084D78FC31AF090C31BF068
:100B980091C31CF0000E1D6EF00E1E6E410E1F6EEE
:100BA8005FEC27F0D8A015D0000E0001FF6F040EEF
:100BB800FE6F000E1F6E040E1E6E90EC28F0E10E04
:100BC8000001606F7F0E616F010E626F20EC13F001
:100BD8005FD725EC27F00009D8B4120083EC2DF07C
:100BE8000009D8B42AD0E4C097F0E5C098F0E6C070
:100BF80099F07DEC23F097C08DF398C08EF3E7C091
:100C08006BF1E8C06CF1E9C06DF18DC36EF18EC374
:100C18006FF1DEC070F1DFC071F1E0C072F1E1C0C8
:100C280073F1E2C074F1E3C075F1DBC076F1DCC0AA
:100C380077F1DDC078F1EBEC26F0010E03018C6F43
:100C4800C1D02DEC2DF081A4FED7000ECF6E000E82
:100C5800CE6ECD8081A402D09EA0FCD7CECF35F138
:100C6800CFCF36F1CD90000E0001756FEA0E766F8A
:100C7800420E776F35C122F036C123F047EC2BF0D6
:100C880022C072F023C073F024C074F0C0EC21F0CD
:100C980072C083F373C084F374C085F383C372F0A6
:100CA80084C373F085C374F0000E0001756FC80E1D
:100CB800766F420E776FC0EC21F072C022F173C0DC
:100CC80023F174C024F122C1DEF023C1DFF024C176
:100CD800E0F0800E0001C96F020ECA6FFA0ECB6FEA
:100CE8007F0ECC6F22C1CDF023C1CEF024C1CFF04E
:100CF80046EC2AF022EE2EF013EE10F00E0EDBCFAB
:100D0800E3FFE806FCE2100E1A6E030E1B6E800E5F
:100D18001C6E020E1D6E68EC2AF07EEC2CF0100E94
:100D28000001606F030E616F010E626F20EC13F01B
:100D38000B0E01017A6F260E796F5D0EE82EFED735
:100D4800792FFCD77A2FFAD700D09A0E1A6E190E7F
:100D58001B6E3E0E1C6E22C11DF023C11EF024C165
:100D68001FF05FEC27F0D8A01ED0030E1B6E1A6888
:100D7800CEEC2BF07EEC2CF04E0E0001606F7F0E57
:100D8800616F010E626F20EC13F00B0E01017A6F98
:100D9800260E796F5D0EE82EFED7792FFCD77A2FB5
:100DA800FAD700D00AD0000E03018C6FFEC01EF0E7
:100DB800FFC01FF090EC28F009D025EC27F00009BF
:100DC800D8B4120003018C51D8A43BD783EC2DF082
:100DD8000009D8B42AD0E4C097F0E5C098F0E6C07E
:100DE80099F07DEC23F097C08DF398C08EF3E7C09F
:100DF8006BF1E8C06CF1E9C06DF18DC36EF18EC383
:100E08006FF1DEC070F1DFC071F1E0C072F1E1C0D6
:100E180073F1E2C074F1E3C075F1DBC076F1DCC0B8
:100E280077F1DDC078F1EBEC26F0010E03018C6F51
:100E3800C1D026EC2DF081AAFED7000ECF6E000E91
:100E4800CE6ECD8081AA02D09EA0FCD7CECF35F140
:100E5800CFCF36F1CD90000E0001756FEA0E766F98
:100E6800420E776F35C122F036C123F047EC2BF0E4
:100E780022C072F023C073F024C074F0C0EC21F0DB
:100E880072C083F373C084F374C085F383C372F0B4
:100E980084C373F085C374F0000E0001756FC80E2B
:100EA800766F420E776FC0EC21F072C022F173C0EA
:100EB80023F174C024F122C1E1F023C1E2F024C17E
:100EC800E3F0800E0001C96F020ECA6FFA0ECB6FF5
:100ED8007F0ECC6F22C1CDF023C1CEF024C1CFF05C
:100EE80046EC2AF022EE1FF013EE1FF00E0EDBCFB9
:100EF800E3FFE806FCE21F0E1A6E030E1B6E800E5F
:100F08001C6E020E1D6E68EC2AF07EEC2CF01F0E93
:100F18000001606F030E616F010E626F20EC13F029
:100F28000B0E01017A6F260E796F5D0EE82EFED743
:100F3800792FFCD77A2FFAD700D09A0E1A6E190E8D
:100F48001B6E3E0E1C6E22C11DF023C11EF024C173
:100F58001FF05FEC27F0D8A01ED0030E1B6E1A6896
:100F6800CEEC2BF07EEC2CF05F0E0001606F7F0E54
:100F7800616F010E626F20EC13F00B0E01017A6FA6
:100F8800260E796F5D0EE82EFED7792FFCD77A2FC3
:100F9800FAD700D00AD0FEC01EF0FFC01FF090ECB8
:100FA80028F0000E03018C6F09D025EC27F000090A
:100FB800D8B4120003018C51D8A43BD783EC2DF090
:100FC8000009D8B42AD0E4C097F0E5C098F0E6C08C
:100FD80099F07DEC23F097C08DF398C08EF3E7C0AD
:100FE8006BF1E8C06CF1E9C06DF18DC36EF18EC391
:100FF8006FF1DEC070F1DFC071F1E0C072F1E1C0E5
:1010080073F1E2C074F1E3C075F1DBC076F1DCC0C6
:1010180077F1DDC078F1EBEC26F0010E03018C6F5F
:101028007EEC2CF06F0E0001606F7F0E616F010E79
:10103800626F20EC13F00B0E01017A6F260E796FA8
:101048005D0EE82EFED7792FFCD77A2FFAD700D07D
:10105800C1D01FEC2DF081AEFED7000ECF6E000E72
:10106800CE6ECD8081AE02D09EA0FCD7CECF35F11A
:10107800CFCF36F1CD90000E0001756FEA0E766F76
:10108800420E776F35C122F036C123F047EC2BF0C2
:1010980022C072F023C073F024C074F0C0EC21F0B9
:1010A80072C083F373C084F374C085F383C372F092
:1010B80084C373F085C374F0000E0001756FC80E09
:1010C800766F420E776FC0EC21F072C022F173C0C8
:1010D80023F174C024F122C1DBF023C1DCF024C168
:1010E800DDF0800E0001C96F020ECA6FFA0ECB6FD9
:1010F8007F0ECC6F22C1CDF023C1CEF024C1CFF03A
:1011080046EC2AF022EE10F013EE2EF00E0EDBCF96
:10111800E3FFE806FCE22E0E1A6E030E1B6E800E2D
:101128001C6E020E1D6E68EC2AF07EEC2CF02E0E62
:101138000001606F030E616F010E626F20EC13F007
:101148000B0E01017A6F260E796F5D0EE82EFED721
:10115800792FFCD77A2FFAD700D09A0E1A6E190E6B
:101168001B6E3E0E1C6E22C11DF023C11EF024C151
:101178001FF05FEC27F0D8A01ED0030E1B6E1A6874
:10118800CEEC2BF07EEC2CF03D0E0001606F7F0E54
:10119800616F010E626F20EC13F00B0E01017A6F84
:1011A800260E796F5D0EE82EFED7792FFCD77A2FA1
:1011B800FAD700D00AD0FEC01EF0FFC01FF090EC96
:1011C80028F0000E03018C6F09D025EC27F00009E8
:1011D800D8B4120003018C51D8A43BD783EC2DF06E
:1011E8000009D8B41200E4C097F0E5C098F0E6C052
:1011F80099F07DEC23F097C08DF398C08EF3E7C08B
:101208006BF1E8C06CF1E9C06DF18DC36EF18EC36E
:101218006FF1DEC070F1DFC071F1E0C072F1E1C0C2
:1012280073F1E2C074F1E3C075F1DBC076F1DCC0A4
:1012380077F1DDC078F1EBEC26F0120007EF10F043
:10124800250EC819D8B42ED020EE02F0A651D92602
:10125800A751DA22DE50DE10D8B414D020EE02F006
:10126800A651D926A751DA2202D807EF10F00500B7
:10127800FA6EDE50FD6EDE50FE6EF850FF6EFA50CC
:10128800C8511200A6C0D9FFA7C0DAFFDECFACF064
:10129800DDCFADF0ACC0D9FFADC0DAFFC8C0DFFF0D
:1012A80000EF10F0000EC26F000EC16F000EBC6F91
:1012B800000EBB6F03D0BB85A84BA92BA8C0F6FFB7
:1012C800A9C0F7FF0800F550300AD8B4F4D7A8C071
:1012D800F6FFA9C0F7FF0800F550C8EC2CF0D8A01D
:1012E80034D0000E0001C26F000EC16FC1C026F0DD
:1012F800C2C027F0000E296E0A0E286E91EC2CF061
:1013080026C0C1F027C0C2F0D00E0001AC6FFF0E9E
:10131800AD6FA8C0F6FFA9C0F7FF0800F550AE6F83
:10132800AF6BAC51AE27AD51AF23AE51C127AF5112
:10133800C223A84BA92BA8C0F6FFA9C0F7FF080035
:10134800F550C8EC2CF0D8B0D1D7A8C0F6FFA9C08A
:10135800F7FF0800F5502E0AD8A430D00001BC8D44
:10136800A84BA92B000EC76F000EC66F1CD0C6C0B5
:1013780026F0C7C027F0000E296E0A0E286E91ECE1
:101388002CF0A8C0F6FFA9C0F7FF0800F5502626E4
:10139800000E2722D00E26240001C66FFF0E27203C
:1013A800C76FA84BA92BA8C0F6FFA9C0F7FF080074
:1013B800F550C8EC2CF0D8A00AD0D9D7000E0001FF
:1013C800C76F000EC66FBC8902D0BC8514D0A8C0F8
:1013D800F6FFA9C0F7FF0001A84BA92B0800F5CF1D
:1013E800C8F0C851000AD8B415EF10F0660AD8B48E
:1013F800ECD707EF10F0070EBC15D8B4ABEF0EF022
:10140800BCA904D0000EC76F060EC66FAAC0D9FFCC
:10141800ABC0DAFFDFCFACF0030EDE26DFCFADF0D6
:10142800000EDD22ACC0D9FFADC0DAFFDECFC3F0BD
:10143800DECFC4F0DDCFC5F0C5AF11D0C3C01AF000
:10144800C4C01BF0C5C01CF0B6EC2CF01AC0C3F029
:101458001BC0C4F01CC0C5F0030E0001BB13000E76
:10146800BA6F000EB96FC351C411C511D8B486D074
:10147800820EAC6FFF0EAD6FC3C0AEF0C4C0AFF04C
:10148800C5C0B0F0C6C0B1F0100E05D0D890B133C9
:10149800B033AF33AE33E82EF9D7AE51AC25B96FC0
:1014A800000EAD21BA6FB907D8A0BA07B9C026F0A7
:1014B800BAC027F0000E296E030E286E91EC2CF0AE
:1014C80026C0B9F027C0BAF0B9C020F0BAC021F0E0
:1014D800000E236E0A0E226EEFEC25F020C0B9F044
:1014E80021C0BAF00001BAAF03D0B907D8A0BA0733
:1014F800B951000872EC15F090C0BDF091C0BEF073
:1015080092C0BFF0BDC081F0BEC082F0BFC083F002
:10151800C3C084F0C4C085F0C5C086F0CBEC20F011
:1015280081C0BDF082C0BEF083C0BFF0BDC01AF05C
:10153800BEC01BF0BFC01CF0000E1D6E800E1E6EDC
:101548003F0E1F6E5FEC27F0D8B005D00001B90739
:10155800D8A0BA0713D0BDC01AF0BEC01BF0BFC0D8
:101568001CF0000E1D6E200E1E6E410E1F6E5FECED
:1015780027F0D8A003D00001B94BBA2B0001C7BF90
:1015880006D0C7511BE10D0EC65DD8B017D0C3C039
:1015980060F0C4C061F0C5C062F0C6512EEC17F00F
:1015A80090C063F091C064F092C065F0DAEC1CF072
:1015B80060C0C3F061C0C4F062C0C5F00001BABF2A
:1015C80006D0BA511FE10A0EB95DD8B01BD0C3517D
:1015D800C411C511D8B455D0C3C097F0C4C098F091
:1015E800C5C099F07DEC23F000019751981199112D
:1015F8009A11D8B4BABF45D0BA5104E1020EB95D08
:10160800D8A03FD0BDC01AF0BEC01BF0BFC01CF0B0
:10161800700E1D6E890E1E6E400E1F6E5FEC27F059
:10162800D8B003D00001F70E02D00001F80EB92798
:10163800FF0EBA23B95172EC15F090C0BDF091C0FD
:10164800BEF092C0BFF0C3C01AF0C4C01BF0C5C042
:101658001CF0BDC01DF0BEC01EF0BFC01FF04CEC9A
:1016680020F01AC0B5F01BC0B6F01CC0B7F01DC002
:10167800B8F0000E0001C36F000EC46F000EC56FF6
:1016880033D0C3C097F0C4C098F0C5C099F07DECC2
:1016980023F097C0B5F098C0B6F099C0B7F09AC0DB
:1016A800B8F0C3C06CF0C4C06DF0C5C06EF0B5C072
:1016B80022F0B6C023F0B7C024F0B8C025F036EC4D
:1016C80028F022C06FF023C070F024C071F0AAEC9B
:1016D8002AF06CC0C3F06DC0C4F06EC0C5F0000E37
:1016E8000001BA6F000EB96F010EC86FC851040D22
:1016F800790EF324F66E7E0EF420F76E0900F5508D
:10170800B55D0900F550B6590900F550B7590900FB
:10171800F550B859D8A005D0C82B0A0EC819D8A4B6
:10172800E5D7C851C625AC6F000EC721AD6FB951BA
:10173800AC27BA51AD23AC51C15FAD51C25BC651A4
:10174800C711D8B403D0C107D8A0C207030EBB1570
:10175800AC6F000EBC15AD6FAC51AD11D8B403D051
:10176800C107D8A0C207BBA5B2D0030EBB15AC6F8A
:10177800000EBC15AD6FAC51AD11D8B469D020EED8
:1017880002F0A651D926A751DA22DE50DE10D8B4CD
:1017980013D020EE02F0A651D926A751DA2201D89B
:1017A80057D00500FA6EDE50FD6EDE50FE6EF85022
:1017B800FF6EFA502D0E1200A6C0D9FFA7C0DAFF9F
:1017C800DECFACF0DDCFADF0ACC0D9FFADC0DAFFF5
:1017D8002D0EDF6EA6C0D9FFA7C0DAFFDE2A000EE5
:1017E800DD2236D020EE02F0A651D926A751DA2202
:1017F800DE50DE10D8B413D020EE02F0A651D92660
:10180800A751DA2201D820D00500FA6EDE50FD6E0D
:10181800DE50FE6EF850FF6EFA50300E1200A6C071
:10182800D9FFA7C0DAFFDECFACF0DDCFADF0ACC09A
:10183800D9FFADC0DAFF300EDF6EA6C0D9FFA7C052
:10184800DAFFDE2A000EDD220001C107D8A0C20798
:101858000001C2BFEDD0C251C5E1C105D8A0E8D092
:10186800C1D720EE02F0A651D926A751DA22DE50C0
:10187800DE10D8B413D020EE02F0A651D926A75115
:10188800DA2201D820D00500FA6EDE50FD6EDE5057
:10189800FE6EF850FF6EFA50200E1200A6C0D9FF57
:1018A800A7C0DAFFDECFACF0DDCFADF0ACC0D9FF1A
:1018B800ADC0DAFF200EDF6EA6C0D9FFA7C0DAFFE1
:1018C800DE2A000EDD220001C107D8A0C207C2BF70
:1018D80005D0C251C6E1C105D8B0C3D7030EBB15A8
:1018E800AC6F000EBC15AD6FAC51AD11D8B4A0D023
:1018F80020EE02F0A651D926A751DA22DE50DE10DA
:10190800D8B413D020EE02F0A651D926A751DA2276
:1019180001D88ED00500FA6EDE50FD6EDE50FE6EE8
:10192800F850FF6EFA502D0E1200A6C0D9FFA7C0BE
:10193800DAFFDECFACF0DDCFADF0ACC0D9FFADC083
:10194800DAFF2D0E6DD0B5C01AF0B6C01BF0B7C0C7
:101958001CF0B8C01DF0C851040D790EF324F66EC2
:101968007E0EF420F76E0900F5CF1EF00900F5CFC2
:101978001FF00900F5CF20F00A00F5CF21F031EC77
:1019880026F01AC0BDF01BC0BEF01CC0BFF01DC0C1
:10199800C0F0BDC01AF0BEC01BF0BFC01CF0C0C074
:1019A8001DF00A0E1E6E000E1F6E000E206E000E39
:1019B800216ED1EC27F01AC0BDF01BC0BEF01CC0D0
:1019C800BFF01DC0C0F0000120EE02F0A651D926DC
:1019D800A751DA22DE50DE10D8B414D020EE02F07F
:1019E800A651D926A751DA2201D822D00500FA6ECD
:1019F800DE50FD6EDE50FE6EF850FF6EFA50BD519F
:101A0800300F1200BD51300FA6C0D9FFA7C0DAFFB2
:101A1800DECFACF0DDCFADF0ACC0D9FFADC0DAFFA2
:101A2800DF6EA6C0D9FFA7C0DAFFDE2A000EDD22CE
:101A38000001C807C829D8B437D085D720EE02F0EE
:101A4800A651D926A751DA22DE50DE10D8B413D019
:101A580020EE02F0A651D926A751DA2201D820D0CB
:101A68000500FA6EDE50FD6EDE50FE6EF850FF6E19
:101A7800FA50300E1200A6C0D9FFA7C0DAFFDECF99
:101A8800ACF0DDCFADF0ACC0D9FFADC0DAFF300EA1
:101A9800DF6EA6C0D9FFA7C0DAFFDE2A000EDD225E
:101AA8000001B907D8A0BA07BABF05D0BA51C6E134
:101AB800B905D8B0C3D7C7BF09D0C75104E1090ECB
:101AC800C65DD8A003D0080EC86F02D0C6C0C8F043
:101AD800C851C65F000EC75BC851D8B432D020EEDB
:101AE80002F0A651D926A751DA22DE50DE10D8B46A
:101AF80013D020EE02F0A651D926A751DA2201D838
:101B080020D00500FA6EDE50FD6EDE50FE6EF850F5
:101B1800FF6EFA502E0E1200A6C0D9FFA7C0DAFF3A
:101B2800DECFACF0DDCFADF0ACC0D9FFADC0DAFF91
:101B38002E0EDF6EA6C0D9FFA7C0DAFFDE2A000E80
:101B4800DD220001C85172EC15F090C0B2F091C0CE
:101B5800B3F092C0B4F0C3C084F0C4C085F0C5C06F
:101B680086F0B2C081F0B3C082F0B4C083F0CBEC91
:101B780020F081C097F082C098F083C099F07DEC86
:101B880023F097C0B5F098C0B6F099C0B7F09AC0E6
:101B9800B8F09CD0B5C01AF0B6C01BF0B7C01CF0A6
:101BA800B8C01DF0C851040D790EF324F66E7E0EF0
:101BB800F420F76E0900F5CF1EF00900F5CF1FF0ED
:101BC8000900F5CF20F00A00F5CF21F031EC26F01E
:101BD8001AC0BDF01BC0BEF01CC0BFF01DC0C0F0D5
:101BE800BDC01AF0BEC01BF0BFC01CF0C0C01DF0C5
:101BF8000A0E1E6E000E1F6E000E206E000E216E65
:101C0800D1EC27F01AC0BDF01BC0BEF01CC0BFF05D
:101C18001DC0C0F0000120EE02F0A651D926A75140
:101C2800DA22DE50DE10D8B414D020EE02F0A6512D
:101C3800D926A751DA2201D822D00500FA6EDE5043
:101C4800FD6EDE50FE6EF850FF6EFA50BD51300F3B
:101C58001200BD51300FA6C0D9FFA7C0DAFFDECFF2
:101C6800ACF0DDCFADF0ACC0D9FFADC0DAFFDF6EB0
:101C7800A6C0D9FFA7C0DAFFDE2A000EDD22B5C054
:101C88001AF0B6C01BF0B7C01CF0B8C01DF00001B8
:101C9800C851040D790EF324F66E7E0EF420F76E0B
:101CA8000900F5CF1EF00900F5CF1FF00900F5CFA8
:101CB80020F00A00F5CF21F0D1EC27F01AC0B5F0DA
:101CC8001BC0B6F01CC0B7F01DC0B8F00001C807B3
:101CD800C829D8B437D05ED720EE02F0A651D9264D
:101CE800A751DA22DE50DE10D8B413D020EE02F06D
:101CF800A651D926A751DA2201D820D00500FA6EBC
:101D0800DE50FD6EDE50FE6EF850FF6EFA50300E5B
:101D18001200A6C0D9FFA7C0DAFFDECFACF0DDCF36
:101D2800ADF0ACC0D9FFADC0DAFF300EDF6EA6C093
:101D3800D9FFA7C0DAFFDE2A000EDD220001C607A0
:101D4800D8A0C707C651C711D8B45DD1C5D7C651E9
:101D5800C711D8A408D0B551B611B711B811D8A475
:101D680002D0C64BC72BC851AC6FAD6BC651AC5D2A
:101D7800AD51800AAE6FC751800AAE59D8B003D0B2
:101D8800C6C0C8F010D0C851AC6FAD6BAC51C65DC1
:101D9800C751800AAE6FAD51800AAE59D8B003D092
:101DA800C8C0C6F0C76BC151C211D8B40DD0030E5C
:101DB800BB15AC6F000EBC15AD6FAC51AD11D8B4EE
:101DC80003D0C107D8A0C207BCAD13D0C151C65DAE
:101DD800C751800AAC6FC251800AAC59D8B005D03F
:101DE800C651C15FC751C25B04D0000EC26F000E5E
:101DF800C16FC851AC6FAD6BC151AC5DAD51800ABC
:101E0800AE6FC251800AAE59D8B005D0C851C15F73
:101E1800000EC25B04D0000EC26F000EC16FBBA5DE
:101E280078D0030EBB15AC6F000EBC15AD6FAC516E
:101E3800AD11D8B432D020EE02F0A651D926A75160
:101E4800DA22DE50DE10D8B413D020EE02F0A6510C
:101E5800D926A751DA2201D820D00500FA6EDE5023
:101E6800FD6EDE50FE6EF850FF6EFA502D0E120019
:101E7800A6C0D9FFA7C0DAFFDECFACF0DDCFADF04A
:101E8800ACC0D9FFADC0DAFF2D0EDF6EA6C0D9FFFA
:101E9800A7C0DAFFDE2A000EDD220001C151C211FF
:101EA800D8B4B1D020EE02F0A651D926A751DA2233
:101EB800DE50DE10D8B413D020EE02F0A651D92699
:101EC800A751DA2201D820D00500FA6EDE50FD6E47
:101ED800DE50FE6EF850FF6EFA50300E1200A6C0AB
:101EE800D9FFA7C0DAFFDECFACF0DDCFADF0ACC0D4
:101EF800D9FFADC0DAFF300EDF6EA6C0D9FFA7C08C
:101F0800DAFFDE2A000EDD220001C107D8A0C207D1
:101F1800C5D7C151C211D8B43AD020EE02F0A651AB
:101F2800D926A751DA22DE50DE10D8B413D020EE1D
:101F380002F0A651D926A751DA2201D820D00500EF
:101F4800FA6EDE50FD6EDE50FE6EF850FF6EFA50EF
:101F5800200E1200A6C0D9FFA7C0DAFFDECFACF072
:101F6800DDCFADF0ACC0D9FFADC0DAFF200EDF6E1B
:101F7800A6C0D9FFA7C0DAFFDE2A000EDD220001C5
:101F8800C107D8A0C207C151C211D8A4C6D7030E31
:101F9800BB15AC6F000EBC15AD6FAC51AD11D8B40C
:101FA80032D020EE02F0A651D926A751DA22DE500F
:101FB800DE10D8B413D020EE02F0A651D926A751CE
:101FC800DA2201D820D00500FA6EDE50FD6EDE5010
:101FD800FE6EF850FF6EFA502D0E1200A6C0D9FF03
:101FE800A7C0DAFFDECFACF0DDCFADF0ACC0D9FFD3
:101FF800ADC0DAFF2D0EDF6EA6C0D9FFA7C0DAFF8D
:10200800DE2A000EDD22A8C0F6FFA9C0F7FF0001F6
:10201800A84BA92B0800F5CFC8F0C851D8A424EFC5
:1020280009F0000EA76F000EA66F12002C0E3B24BD
:10203800D96EDA6A000EDA22AECFDFFF3B2A3650BD
:102048003710D8A422D00001FC51D8A40CD02B0EF4
:102058003B24D96EDA6A000EDA224F0EDE18D8A4B5
:10206800E3D2010E10D02B0E3B24D96EDA6A000E93
:10207800DA224B0EDE18D8A405D0000EFC6F364AC3
:10208800372AD2D2000EFC6FCFD236043710D8A42C
:1020980020D00001FB51D8A40CD02B0E3B24D96EC4
:1020A800DA6A000EDA224F0EDE18D8A4BDD2010E6D
:1020B8000ED02B0E3B24D96EDA6A000EDA224B0EB4
:1020C800DE18D8A403D0000EFB6FD9D7000EFB6F23
:1020D800ABD2020E36183710D8A420D00001FA511E
:1020E800D8A40CD02B0E3B24D96EDA6A000EDA2263
:1020F8004F0EDE18D8A498D2010E0ED02B0E3B241A
:10210800D96EDA6A000EDA224B0EDE18D8A403D094
:10211800000EFA6FB4D7000EFA6F86D2030E361887
:102128003710D8A43ED0010145514611D8A40ED08D
:102138002B0E3B24D96EDA6A000EDA22310EDE1835
:10214800D8A472D2000E466F010E29D02B0E3B2464
:10215800D96EDA6A000EDA22390EDE18D8A408D051
:1021680045054611D8A404D0000E466F020E17D0BC
:102178002B0E3B24D96EDA6A000EDA22320EDE18F4
:10218800D8A40AD0020E45194611D8A405D0000ECD
:10219800466F000E456F73D7000E466F000E456FF1
:1021A80043D2040E36183710D8A43ED20001F95194
:1021B800D8A439D0F851D8A436D0F751D8A433D000
:1021C800F651D8A430D02B0E3B24D96EDA6A000E13
:1021D800DA22530EDE18D8A402D0010E90D02B0EAE
:1021E8003B24D96EDA6A000EDA22440EDE18D8A42F
:1021F80002D0010EC1D12B0E3B24D96EDA6A000E33
:10220800DA22580EDE18D8A402D0010EE8D12B0E1F
:102218003B24D96EDA6A000EDA22590EDE18D8A4E9
:1022280003D2010E00D2F905D8A46BD02B0E3B24A3
:10223800D96EDA6A000EDA22300EDE18D8A40AD077
:10224800000EFF6F010EFE6F030E026E0168E7ECD1
:102258002BF053D02B0E3B24D96EDA6A000EDA220B
:10226800310EDE18D8A40BD0000EFF6F010EFE6FE2
:10227800010E026EF40E016EE7EC2BF03ED02B0E31
:102288003B24D96EDA6A000EDA22320EDE18D8A4A0
:102298000BD0000EFF6F020EFE6F010E026E4A0E8B
:1022A800016EE7EC2BF029D02B0E3B24D96EDA6AAD
:1022B800000EDA22330EDE18D8A40BD0000EFF6F02
:1022C800030EFE6F000E026EAA0E016EE7EC2BF0F5
:1022D80014D02B0E3B24D96EDA6A000EDA22340EA3
:1022E800DE18D8A40AD0000EFF6F040EFE6F000E91
:1022F800026E000E016EE7EC2BF0000E0001F96F84
:1023080093D1F805D8A43AD12B0E3B24D96EDA6ABA
:10231800000EDA22310EDE18D8A41DD0000E076E8A
:10232800000E066E820E056EDE0EE82EFED7052E16
:10233800FCD7000E026E000E016E13EC29F0064A5F
:10234800072A07BEEFD7075005E10C0E065CD8B088
:1023580011D1E8D70FD12B0E3B24D96EDA6A000EC3
:10236800DA22320EDE18D8A41DD0000E096E000E37
:10237800086E820E056EDE0EE82EFED7052EFCD7FF
:10238800000E026E000E016E13EC29F0084A092AAD
:1023980009BEEFD7095005E1180E085CD8B0EAD09D
:1023A800E8D7E8D02B0E3B24D96EDA6A000EDA2281
:1023B800330EDE18D8A41DD0000E0B6E000E0A6E68
:1023C800820E056EDE0EE82EFED7052EFCD7000E17
:1023D800026E000E016E13EC29F00A4A0B2A0BBE9E
:1023E800EFD70B5005E1240E0A5CD8B0C3D0E8D76C
:1023F800C1D02B0E3B24D96EDA6A000EDA22340ED5
:10240800DE18D8A41DD0000E0D6E000E0C6E820EC4
:10241800056EDE0EE82EFED7052EFCD7000E026EE6
:10242800000E016EBCEC28F00C4A0D2A0DBEEFD749
:102438000D5005E10C0E0C5CD8B09CD0E8D79AD0B2
:102448002B0E3B24D96EDA6A000EDA22350EDE181E
:10245800D8A41ED0000E0F6E000E0E6E0FBE08D050
:102468000F5005E1180E0E5CD8B084D001D082D090
:10247800820E056EDE0EE82EFED7052EFCD7000E66
:10248800026E000E016EBCEC28F00E4A0F2AE6D749
:102498002B0E3B24D96EDA6A000EDA22360EDE18CD
:1024A800D8A41CD0000E116E000E106E11BE06D0FE
:1024B800115060E1240E105CD8B05CD0820E056E1D
:1024C800DE0EE82EFED7052EFCD7000E026E000E9B
:1024D800016EBCEC28F0104A112AE8D72B0E3B24D9
:1024E800D96EDA6A000EDA22370EDE18D8A41CD0AC
:1024F800000E136E000E126E13BE06D013503AE192
:10250800060E125CD8B036D0820E056EDE0EE82EAE
:10251800FED7052EFCD7000E026E000E016E13ECDE
:1025280029F0124A132AE8D72B0E3B24D96EDA6A0F
:10253800000EDA22380EDE18D8A41CD0000E156E54
:10254800000E146E15BE06D0155014E1060E145C6C
:10255800D8B010D0820E056EDE0EE82EFED7052EFE
:10256800FCD7000E026E000E016EBCEC28F0144A77
:10257800152AE8D7000E0001F86F56D0F705D8A441
:1025880030D02B0E3B24D96EDA6A000EDA22330ED5
:10259800DE18D8A404D0010E01014A6F1ED02B0EFC
:1025A8003B24D96EDA6A000EDA22340EDE18D8A47B
:1025B80005D0010E01014A6F010E0ED02B0E3B24EF
:1025C800D96EDA6A000EDA22320EDE18D8A405D0E7
:1025D800010E01014A6F000E496F000E0001F76FEE
:1025E80023D0F605D8A418D02B0E3B24D96EDA6A6E
:1025F800000EDA22300EDE18D8A402D0899012D04C
:102608002B0E3B24D96EDA6A000EDA22310EDE1860
:10261800D8A408D0898006D0000EF96F000EF86F94
:10262800000EF76F000EF66F070E3B6402D0000E27
:102638003B6E0001FD2B120034D2000162510DECFB
:102648002BF00001622B000E666F000E696F676940
:10265800686960C0F6FF61C0F7FFF86A050EF764A5
:1026680003D00800F55005D0F6CFE9FFF7CFEAFF11
:10267800EF507C0AD8A456D1020E00016025636F82
:10268800000E6121646F63C0F6FF64C0F7FFF86A4B
:10269800050EF76403D00800F55005D0F6CFE9FF22
:1026A800F7CFEAFFEF507C0AD8A43CD1010E000115
:1026B8006025636F000E6121646F63C0F6FF64C01C
:1026C800F7FFF86A050EF76403D00800F55005D047
:1026D800F6CFE9FFF7CFEAFFEF50630AD8B41DD071
:1026E800010E00016025636F000E6121646F63C0F5
:1026F800F6FF64C0F7FFF86A050EF76403D0080018
:10270800F55005D0F6CFE9FFF7CFEAFFEF50720A90
:10271800D8B403D063D00001692B0001695160254A
:10272800636F000E6121646F030E6327000E64233C
:1027380063C0F6FF64C0F7FFF86A050EF76403D0BC
:102748000800F55005D0F6CFE9FFF7CFEAFFEF50C4
:102758000009D8B41ED0000169516025636F000ECE
:102768006121646F030E6327000E642363C0F6FFC4
:1027780064C0F7FFF86A050EF76403D00800F55047
:1027880005D0F6CFE9FFF7CFEAFFEF500A0AD8A441
:10279800C2D700016951385CD8A038C069F06951C6
:1027A800385C696F010E6025636F000E6121646FEC
:1027B80063C0F6FF64C0F7FFF86A050EF76403D03C
:1027C8000800F55005D0F6CFE9FFF7CFEAFFEF5044
:1027D800630AD8A403D00001D8906933010E000120
:1027E8006025636F000E6121646F63C0F6FF64C0EB
:1027F800F7FFF86A050EF76403D00800F55005D016
:10280800F6CFE9FFF7CFEAFFEF50640AD8A485D0E6
:10281800000E00016B6F000E6A6F000E686F000EED
:10282800676F33D067C026F068C027F0000E296EA6
:102838000A0E286E91EC2CF000016A516025636F36
:102848006B516121646F030E6327000E642363C01C
:10285800F6FF64C0F7FFF86A050EF76403D00800B6
:10286800F55005D0F6CFE9FFF7CFEAFFEF500001AA
:10287800656F65512626000E2722D00E2624676F25
:10288800FF0E2720686F6A4B6B2B6A516025636FB8
:102898006B516121646F030E6327000E642363C0CC
:1028A800F6FF64C0F7FFF86A050EF76403D0080066
:1028B800F55005D0F6CFE9FFF7CFEAFFEF5000015A
:1028C800656F2F0E65651FD06A516025636F6B5168
:1028D8006121646F030E6327000E642363C0F6FF53
:1028E80064C0F7FFF86A050EF76403D00800F550D6
:1028F80005D0F6CFE9FFF7CFEAFFEF500001656F8B
:10290800390E65658FD7010E6A25636F000E6B213E
:10291800646F6351602764516123030E00016027CF
:10292800000E6123000E00016B6F000E6A6F06D067
:10293800200E8FEC29F000016A4B6B2B6951636FF5
:10294800646B63516A5D64516B59D8B037D0F0D766
:1029580060C0F6FF61C0F7FFF86A050EF76403D0A0
:102968000800F55005D0F6CFE9FFF7CFEAFFEF50A2
:102978008FEC29F00001604B612B672908E1682979
:10298800D8A405D0C80E00D0E82EFDD717D0000E69
:102998006B6F000E6A6F0CD0030E0001636F970E09
:1029A800E82EFED7632FFCD700D000016A4B6B2BB3
:1029B80067516A5D68516B59D8A0EED760C0F6FFC1
:1029C80061C0F7FFF86A050EF76403D00800F550F8
:1029D80005D0F6CFE9FFF7CFEAFFEF500009D8B4EA
:1029E8001BD060C0F6FF61C0F7FFF86A050EF764F8
:1029F80003D00800F55005D0F6CFE9FFF7CFEAFF7E
:102A0800EF500A0AD8B408D00001662B6605636F38
:102A18003850635DD8A09CD738500001665DD8B0A7
:102A280004D029D00001604B612B60C0F6FF61C063
:102A3800F7FFF86A050EF76403D00800F55005D0D3
:102A4800F6CFE9FFF7CFEAFFEF500009D8B413D06B
:102A580060C0F6FF61C0F7FFF86A050EF76403D09F
:102A68000800F55005D0F6CFE9FFF7CFEAFFEF50A1
:102A78000A0AD8A4D7D760C0F6FF61C0F7FFF86A82
:102A8800050EF76403D00800F55005D0F6CFE9FF2E
:102A9800F7CFEAFFEF500A0AD8A403D00001604B31
:102AA800612B60C0F6FF61C0F7FFF86A050EF76496
:102AB80003D00800F55005D0F6CFE9FFF7CFEAFFBD
:102AC800EF500009D8B4120000016251D8B41200C6
:102AD80062510101475DD8A01200AFD50001966F81
:102AE800000196AFDCD0966D9651800A120FD8A0DF
:102AF8007BD0000E236E0A0E226E000E1D6E640E31
:102B08001C6E96511A6E1B6A1ABE1B0699EC27F0AA
:102B18001AC020F01BC021F0EFEC25F0090E20268A
:102B28002050030D520EF324F66E7E0EF420F76E3D
:102B38000900F5CF84F00900F5CF85F00A00F5CF3C
:102B480086F0000E236E640E226E00019651206EF0
:102B5800216A20BE2106EFEC25F0120E2026205017
:102B6800030D520EF324F66E7E0EF420F76E090064
:102B7800F5CF81F00900F5CF82F00A00F5CF83F098
:102B8800CBEC20F081C093F082C094F083C095F024
:102B980093C081F094C082F095C083F0000E1D6E42
:102BA8000A0E1C6E000196511A6E1B6A1ABE1B068D
:102BB80099EC27F01A50030D520EF324F66E7E0E90
:102BC800F420F76E0900F5CF84F00900F5CF85F001
:102BD8000A00F5CF86F0CBEC20F081C090F082C0DF
:102BE80091F083C092F012009651800A750FD8A018
:102BF80044D0000E236E0A0E226E9651206E216A72
:102C080020BE2106EFEC25F0090E20262050030DEA
:102C1800520EF324F66E7E0EF420F76E0900F5CFFF
:102C280081F00900F5CF82F00A00F5CF83F0000E9D
:102C38001D6E0A0E1C6E000196511A6E1B6A1ABE92
:102C48001B0699EC27F01A50030D520EF324F66E6A
:102C58007E0EF420F76E0900F5CF84F00900F5CF59
:102C680085F00A00F5CF86F0CBEC20F081C090F01B
:102C780082C091F083C092F012009651030D520E5B
:102C8800F324F66E7E0EF420F76E0900F5CF90F06F
:102C98000900F5CF91F00A00F5CF92F01200965195
:102CA800800A120FD8A07BD0000E236E0A0E226E67
:102CB800000E1D6E640E1C6E96511A6E1B6A1ABEAB
:102CC8001B0699EC27F01AC020F01BC021F0EFEC8E
:102CD80025F0090E20262050030D2B0EF324F66E46
:102CE8007E0EF420F76E0900F5CF84F00900F5CFC9
:102CF80085F00A00F5CF86F0000E236E640E226E72
:102D080000019651206E216A20BE2106EFEC25F0C5
:102D1800120E20262050030D2B0EF324F66E7E0E85
:102D2800F420F76E0900F5CF81F00900F5CF82F0A5
:102D38000A00F5CF83F0CBEC20F081C093F082C07D
:102D480094F083C095F093C081F094C082F095C050
:102D580083F0000E1D6E0A0E1C6E000196511A6E4D
:102D68001B6A1ABE1B0699EC27F01A50030D2B0E8E
:102D7800F324F66E7E0EF420F76E0900F5CF84F08A
:102D88000900F5CF85F00A00F5CF86F0CBEC20F0EE
:102D980081C090F082C091F083C092F012009651E9
:102DA800800A750FD8A044D0000E236E0A0E226E3A
:102DB8009651206E216A20BE2106EFEC25F0090EFF
:102DC80020262050030D2B0EF324F66E7E0EF420E1
:102DD800F76E0900F5CF81F00900F5CF82F00A00FF
:102DE800F5CF83F0000E1D6E0A0E1C6E0001965181
:102DF8001A6E1B6A1ABE1B0699EC27F01A50030DAF
:102E08002B0EF324F66E7E0EF420F76E0900F5CF34
:102E180084F00900F5CF85F00A00F5CF86F0CBECF9
:102E280020F081C090F082C091F083C092F012002F
:102E38009651030D2B0EF324F66E7E0EF420F76EDA
:102E48000900F5CF90F00900F5CF91F00A00F5CF11
:102E580092F012000001996F6D0E00019965A4D0DF
:102E6800000E296E030E286E000E226E0A0E216EC9
:102E7800000E1D6E640E1C6E99C01AF01B6A89EC58
:102E88002AF01AC01FF01BC020F03EEC29F01FC02A
:102E980026F020C027F091EC2CF01B0E2626000E01
:102EA8002722520E2624F66E7E0E2720F76E090082
:102EB800F5CF84F00900F5CF85F00A00F5CF86F04C
:102EC800000E226E640E216E99C01FF0206A3EEC3F
:102ED80029F01FC026F020C027F0000E296E030E2F
:102EE800286E91EC2CF0360E2626000E2722520E64
:102EF8002624F66E7E0E2720F76E0900F5CF81F0A6
:102F08000900F5CF82F00A00F5CF83F0CBEC20F072
:102F180081C096F082C097F083C098F0000E296EA9
:102F2800030E286E000E1D6E0A0E1C6E99C01AF054
:102F38001B6A89EC2AF01AC026F01BC027F091EC16
:102F48002CF0520E2624F66E7E0E2720F76E09000E
:102F5800F5CF84F00900F5CF85F00A00F5CF86F0AB
:102F680096C081F097C082F098C083F0CBEC20F037
:102F780081C093F082C094F083C095F093C081F033
:102F880094C082F095C083F0000E0001846F000E9B
:102F9800856F3F0E866FCBEC20F081C090F082C029
:102FA80091F083C092F012000A0E996566D0000E67
:102FB800296E030E286E000E1D6E0A0E1C6E99C037
:102FC8001AF01B6A89EC2AF01AC026F01BC027F0F9
:102FD80091EC2CF0520E2624F66E7E0E2720F76E0A
:102FE8000900F5CF84F00900F5CF85F00A00F5CF88
:102FF80086F0000E226E0A0E216E99C01FF0206A1C
:103008003EEC29F01FC026F020C027F0000E296EE4
:10301800030E286E91EC2CF01B0E2626000E27229C
:10302800520E2624F66E7E0E2720F76E0900F5CF85
:1030380081F00900F5CF82F00A00F5CF83F0CBECE0
:1030480020F081C096F082C097F083C098F096C0B7
:1030580081F097C082F098C083F0000E0001846F61
:10306800000E856F3F0E866FCBEC20F081C090F08C
:1030780082C091F083C092F012009951030D520E54
:10308800F324F66E7E0EF420F76E0900F5CF81F07A
:103098000900F5CF82F00A00F5CF83F0000E846FA7
:1030A800000E856F3F0E866FCBEC20F081C090F04C
:1030B80082C091F083C092F012002EEC2CF001EC4B
:1030C8002DF09AEC2BF0030E1B6E1A68CEEC2BF049
:1030D80093EC2DF00B0E01017C6F260E7B6F5D0EBD
:1030E800E82EFED77B2FFCD77C2FFAD700D0100E06
:1030F800216E020E226E270E04EC28F0010E7FECE2
:103108002BF07EEC2CF09B0E0001606F7F0E616F40
:10311800010E626F20EC13F0330E01017C6FBB0EC1
:103128007B6FDF0EE82EFED77B2FFCD77C2FFAD7DC
:1031380000D0F28EF28C20EC1FF0000E0101486FD7
:103148007EEC2CF0FC0E0001606F7E0E616F010EAC
:10315800626F20EC13F01A0E01017C6F5E0E7B6F1C
:103168006E0EE82EFED77B2FFCD77C2FFAD700F007
:103178000001EC51D8A451D07EEC2CF07E0E000159
:10318800606F7F0E616F010E626F20EC13F00B0E03
:1031980001017C6F260E7B6F5D0EE82EFED77B2F1C
:1031A800FCD77C2FFAD700D0000E1B6EC80E1A6E03
:1031B800000E1D6E030E1C6E12EC23F01AC0EAF00E
:1031C8001BC0EBF0070E0001EA19EB11D8A425D0BB
:1031D800010EEC6F7EEC2CF0000E0001FF6F010E6B
:1031E800FE6FFEC01EF0FFC01FF090EC28F0E90E45
:1031F8000001606F7F0E616F010E626F20EC13F0AB
:103208000B0E01017C6F260E7B6F5D0EE82EFED73C
:103218007B2FFCD77C2FFAD700D00001ED51D8A422
:103228001ED0EC51D8B41BD07EEC2CF0A80E0001B7
:10323800606F7F0E616F010E626F20EC13F00B0E52
:1032480001017C6F260E7B6F5D0EE82EFED77B2F6B
:10325800FCD77C2FFAD700D0ABEC24F020D0ED516E
:10326800D8B41DD0EC51D8B41AD07EEC2CF0BF0ED7
:103278000001606F7F0E616F010E626F20EC13F02A
:103288000B0E01017C6F260E7B6F5D0EE82EFED7BC
:103298007B2FFCD77C2FFAD700D054EC00F001012B
:1032A8004851D8B40AD0160E0001C96F7F0ECA6FF4
:1032B8002AEC2BF0000E0101486F83EC2DF0000979
:1032C800D8B456D7E4C097F0E5C098F0E6C099F0B6
:1032D8007DEC23F097C07DF198C07EF1E7C06BF1DB
:1032E800E8C06CF1E9C06DF17DC16EF17EC16FF18E
:1032F800DEC070F1DFC071F1E0C072F1E1C073F1BE
:10330800E2C074F1E3C075F1DBC076F1DCC077F19F
:10331800DDC078F1EBEC26F02BD7A49E6CAE00D183
:103328006C9E000E0001F16F010120EE03F03B518D
:10333800D9263C51DA22DECF04F0DDCF05F004C0F7
:10334800D9FF05C0DAFF010EDF6E000E3B6F000EDD
:103358003C6F120001010CB312000AC13BF10BC112
:103368003CF10AC1D9FF0BC1DAFFDF500001F06F51
:10337800010120EE01F00A51D9260B51DA22DECFE5
:103388003DF1DDCF3EF1050E0A27000E0B23560E48
:103398000A1908E1010E0B19D8A404D0510E0A6FBE
:1033A800010E0B6F0C9108510A1904E109510B1910
:1033B800D8B40C836B80020E0001F16F12006BAC65
:1033C80006D001010E2B040ECBEC2AF01200D89087
:1033D8003F30056E3E30046E04506F6E3EA003D041
:1033E8000B0EF16F1200030EF16F12006BAC06D0DA
:1033F80001010E2B040ECBEC2AF012006B823EC0AA
:1034080004F03FC005F005C004F0056A060E041676
:10341800000E0516F00E04103E6E05503F6E3E80FD
:10342800010EEE6FC8D7EE05D8B41CD03DC1D9FF48
:103438003EC1DAFFDECF3EF0DDCF3FF0010120EEE6
:1034480003F03D51D9263E51DA22DECF39F1DDCFE6
:103458003AF120EE02F03D51D9263E51DA22DF50F2
:103468000001EF6F3EC06FFF3EA0BDD7050EF16FA4
:1034780012006BAC07D001010E2B6B9C050ECBEC38
:103488002AF01200EF07EF29D8A40ED0050E01018B
:103498003D27000E3E230001F02F04D0000ECBEC98
:1034A8002AF012006B8287D739C1D9FF3AC1DAFFF7
:1034B800DF506F6E0101394B3A2B12006BAC07D00D
:1034C80001010E2B040ECBEC2AF06B9C12006B86CC
:1034D800080EF16F1200080EF16F6B86120039C1E9
:1034E800D9FF3AC1DAFF6FCFDFFF0101394B3A2B21
:1034F800010E0001EF5FD8B404D06B9A060EF16F8D
:1035080003D06B8AE5EC2CF06B881200000ECBEC34
:103518002AF0120001010E2B060ECBEC2AF0120045
:103528000001F151000AD8B415D7010AD8B4BAD7A6
:10353800030AD8B478D7010AD8B49BD7070AD8B4F5
:10354800E5D7010AD8B4BAD7030AD8B4C4D7010A50
:10355800D8B4DCD70F0AD8B4C2D7020AD8B42FD748
:10356800010AD8B443D7D6D79E96C6AE00D1C69E18
:10357800000E0001F56F010120EE03F04151D9263C
:103588004251DA22DECF04F0DDCF05F004C0D9FFC6
:1035980005C0DAFF010EDF6E000E416F000E426FAC
:1035A8001200010113B3120011C141F112C142F11D
:1035B80011C1D9FF12C1DAFFDF500001F46F010118
:1035C80020EE01F01151D9261251DA22DECF43F153
:1035D800DDCF44F1050E1127000E1223650E1119D7
:1035E80008E1010E1219D8A404D0600E116F010E63
:1035F800126F13910F51111904E110511219D8B417
:103608001383C580020E0001F56F1200C5AC06D009
:103618000101152B040EECEC2AF01200D890413071
:10362800056E4030046E0450C96E40A003D00B0EE6
:10363800F56F1200030EF56F1200C5AC06D001013C
:10364800152B040EECEC2AF01200C58240C004F0E1
:1036580041C005F005C004F0056A060E0416000E08
:103668000516F00E0410406E0550416E4080010EA4
:10367800F26FC8D7F205D8B41CD043C1D9FF44C1F2
:10368800DAFFDECF40F0DDCF41F0010120EE03F09C
:103698004351D9264451DA22DECF3FF1DDCF40F144
:1036A80020EE02F04351D9264451DA22DF500001BE
:1036B800F36F40C0C9FF40A0BDD7050EF56F1200DB
:1036C800C5AC07D00101152BC59C050EECEC2AF002
:1036D8001200F307F329D8A40ED0050E01014327E1
:1036E800000E44230001F42F04D0000EECEC2AF065
:1036F8001200C58287D73FC1D9FF40C1DAFFDF502A
:10370800C96E01013F4B402B1200C5AC07D0010127
:10371800152B040EECEC2AF0C59C1200C586080E89
:10372800F56F1200080EF56FC58612003FC1D9FF6C
:1037380040C1DAFFC9CFDFFF01013F4B402B010E2B
:103748000001F35FD8B404D0C59A060EF56F03D014
:10375800C58AF3EC2CF0C5881200000EECEC2AF0B8
:1037680012000101152B060EECEC2AF012000001E4
:10377800F551000AD8B415D7010AD8B4BAD7030A44
:10378800D8B478D7010AD8B49BD7070AD8B4E5D7F4
:10379800010AD8B4BAD7030AD8B4C4D7010AD8B42E
:1037A800DCD70F0AD8B4C2D7020AD8B42FD7010A77
:1037B800D8B443D7D6D70001B851B911BA11D8A493
:1037C80007D0000EB86F800EB96F3F0EBA6F1200A7
:1037D800720E1A6E310E1B6E440E1C6EB8C01DF0B0
:1037E800B9C01EF0BAC01FF05FEC27F0D8B00DD0FA
:1037F800000E0101326F220E316FFF0E0001B86F0B
:103808007F0EB96F7F0EBA6F1200B8C01AF0B9C038
:103818001BF0BAC01CF0490E1D6E3A0E1E6EC40E87
:103828001F6E5FEC27F0D8B00DD0000E0101326F8B
:10383800220E316F000E0001B86F000EB96F000E36
:10384800BA6F12000001BAAF02D0010E01D0000E0B
:10385800C06FC051D8B40ED0B8C01AF0B9C01BF0B0
:10386800BAC01CF0B6EC2CF01AC0B8F01BC0B9F006
:103878001CC0BAF0B8C081F0B9C082F0BAC083F0F9
:10388800AA0E0001846FB80E856F3F0E866FCBECD1
:1038980020F081C0B8F082C0B9F083C0BAF0B8C0D7
:1038A800B0F0B9C0B1F0BAC0B2F034EC22F0B0C098
:1038B800BBF0B1C0BCF0B2C0BDF0BBC097F0BCC09B
:1038C80098F0BDC099F07DEC23F097C0BEF098C089
:1038D800BFF0B8C06CF0B9C06DF0BAC06EF0BEC031
:1038E80022F0BFC023F047EC2BF022C06FF023C0BA
:1038F80070F024C071F0AAEC2AF06CC0B8F06DC06A
:10390800B9F06EC0BAF0B8C090F0B9C091F0BAC0C2
:1039180092F0A10E0001936F7E0E946F000E966FC9
:10392800090E956FA5EC22F090C09CF091C09DF017
:1039380092C09EF0BEC09FF0BFC0A0F0E8EC23F09C
:103948009CC0B8F09DC0B9F09EC0BAF00001C0514B
:10395800D8B425D0B8290EE17F0EB9190BE17F0E36
:10396800BA19D8A407D0000EB86F000EB96F000EB0
:10397800BA6F1200000E726F800E736F3F0E746F75
:10398800B8C075F0B9C076F0BAC077F0C0EC21F0D5
:1039980072C0B8F073C0B9F074C0BAF01200B8C001
:1039A800B8F0B9C0B9F0BAC0BAF0120062C066F097
:1039B8000001676B686B6135663701E367816651A3
:1039C8006B6F65C066F0676B686B6435663701E3DB
:1039D800678166516A6F6B51D8B40AD06A516B5DC2
:1039E800D8B00DD06B516A5D666F180E666507D04A
:1039F80063C060F064C061F065C062F012006A5193
:103A0800D8B40AD06B516A5DD8B00DD06A516B5DDD
:103A1800666F180E666507D060C060F061C061F01F
:103A280062C062F01200060E696F62BF698F65BFDF
:103A3800698D618FFF0E6017FF0E6117000E621708
:103A4800648FFF0E6317FF0E6417000E65176A5127
:103A58006B5DD8B01BD0D8906337643765376A0779
:103A68006B516A19D8B40DD0690769C066F0070EA2
:103A78006617D8B406D0EFD7D89062336133603375
:103A88006B2B6A516B19D8B41FD0F6D76B516A5D8E
:103A9800D8B01AD0D8906037613762376B076B514E
:103AA8006A19D8B40DD0690769C066F0070E6617A1
:103AB800D8B406D0EFD7D8906533643363336A2B14
:103AC8006A516B19D8A4F7D769AF0CD0FF0E601BE9
:103AD800FF0E611BFF0E621B010E6027000E6123A3
:103AE800000E622369AD0CD0FF0E631BFF0E641B32
:103AF800FF0E651B010E6327000E6423000E65236D
:103B0800000E696F60516327615164236251652318
:103B180065AF0ED0FF0E631BFF0E641BFF0E651B07
:103B2800010E6327000E6423000E6523010E696FE2
:103B380063C01AF064C01BF065C01CF06BC01DF0B8
:103B480069C01EF004EC25F01AC060F01BC061F0DB
:103B58001CC062F01200000E0001CD6FC151C211ED
:103B6800C311D8A41DD0000E1A6E000E1B6E000ED5
:103B78001C6EC4C01DF0C5C01EF0C6C01FF05FECAF
:103B880027F0D8A005D0000E0101326F210E316F49
:103B9800000E0001C16F000EC26F000EC36F12004D
:103BA800C451C511C611D8A407D0000EC16F800E2C
:103BB800C26F3F0EC36F1200C3AF43D0C4C097F0AB
:103BC800C5C098F0C6C099F07DEC23F097C0CEF040
:103BD80098C0CFF099C0D0F09AC0D1F0CEC022F0F2
:103BE800CFC023F0D0C024F0D1C025F036EC28F0A7
:103BF8000001C451221807E1C551231804E1C65138
:103C08002418D8B40DD0000E0101326F210E316F87
:103C1800000E0001C16F000EC26F000EC36F1200CC
:103C2800CE51010BCD6FC1C01AF0C2C01BF0C3C08A
:103C38001CF0B6EC2CF01AC0C1F01BC0C2F01CC0BE
:103C4800C3F0C1C09CF0C2C09DF0C3C09EF0B7ECE9
:103C58001FF09CC0C7F09DC0C8F09EC0C9F0C7C087
:103C680081F0C8C082F0C9C083F0C4C084F0C5C068
:103C780085F0C6C086F0CBEC20F081C0CAF082C0C7
:103C8800CBF083C0CCF0CAC0B8F0CBC0B9F0CCC080
:103C9800BAF0DFEC1BF0B8C0C1F0B9C0C2F0BAC0CE
:103CA800C3F00001CD51D8B40FD0C1C01AF0C2C0C2
:103CB8001BF0C3C01CF0B6EC2CF01AC0C1F01BC03E
:103CC800C2F01CC0C3F01200C1C0C1F0C2C0C2F033
:103CD800C3C0C3F01200000E1B6EC80E1A6E000E91
:103CE8001D6E030E1C6E12EC23F01AC0EAF01BC006
:103CF800EBF0070E0001EA19EB11D8A404D0000E6E
:103D0800EC6F000E1200030EEA19EB11D8A41BD0B9
:103D1800010EED6F7EEC2CF0BF0E0001606F7F0E80
:103D2800616F010E626F20EC13F00B0E00016D6FD6
:103D3800260E6C6F5D0EE82EFED76C2FFCD76D2F0C
:103D4800FAD700D0DED7050EEA19EB11D8A415D0A2
:103D5800FE4BFF2BFFBF0AD0FF5104E1050EFE5DAD
:103D6800D8A004D0000EFF6F010EFE6FFEC01EF03B
:103D7800FFC01FF090EC28F05DD0090EEA19EB1196
:103D8800D8A458D001018451D8B429D0000E00011C
:103D98006F6F000E6E6F820E00016C6FDD0EE82EE5
:103DA800FED76C2FFCD700D0000E1B6E000E1A6ECB
:103DB800E8EC28F000016E4B6F2B6FBFECD76F510A
:103DC80004E1060E6E5DD8A0E6D70101374B382B0B
:103DD800020E37193811D8A42DD0000E2AD0000EA3
:103DE8000001716F000E706F820E00016C6FDD0EA6
:103DF800E82EFED76C2FFCD700D0000E1B6E000EED
:103E08001A6E64EC28F00001704B712B71BFECD76F
:103E1800715104E1060E705DD8A0E6D7010137079D
:103E2800D8A03807FE0E371905E13829D8A402D0E2
:103E3800010E846F010E1200F00E0001C96F7F0E93
:103E4800CA6F2AEC2BF054EC2DF01A041B10D8A4DE
:103E5800FAD78D0E0001C96F7F0ECA6F2AEC2BF0BE
:103E680054EC2DF0020E1A181B10D8A4F9D7160E10
:103E78000001C96F7F0ECA6F2AEC2BF0060E0001F5
:103E8800DA6F130ED96FAD0EE82EFED7D92FFCD7F7
:103E9800DA2FFAD700D02FD00B0E0001DA6F260EDA
:103EA800D96F5D0EE82EFED7D92FFCD7DA2FFAD7B7
:103EB80000D054EC2DF0030E1A181B10D8B41BD0E8
:103EC800020E0001DA6F040ED96FBA0EE82EFED783
:103ED800D92FFCD7DA2FFAD700F08D0E0001C96F61
:103EE8007F0ECA6F2AEC2BF0160E0001C96F7F0EE9
:103EF800CA6F2AEC2BF054EC2DF0030E1A181B1085
:103F0800D8A4CAD7030E0001DA6F080ED96F770E4E
:103F1800E82EFED7D92FFCD7DA2FFAD7B40E000136
:103F2800C96F7F0ECA6F2AEC2BF0060E0001DA6FFC
:103F3800130ED96FAD0EE82EFED7D92FFCD7DA2F86
:103F4800FAD700D08D0E0001C96F7F0ECA6F2AEC18
:103F58002BF0160E0001C96F7F0ECA6F2AEC2BF0EA
:103F680091EC2DF0120000019EAF0DD0000E010162
:103F7800326F210E316F000E00019C6F000E9D6F95
:103F8800000E9E6F12009C519D119E11D8A40DD059
:103F9800000E0101326F220E316F000E00019C6F7E
:103FA800000E9D6F000E9E6F1200000E846F000EB3
:103FB800856F400E866F9F0E1D6E000E1E6E9CC094
:103FC8001AF09DC01BF09EC01CF0AAEC25F01AC088
:103FD80081F01BC082F01CC083F0CBEC20F081C0C4
:103FE80060F082C061F083C062F0000E0001636F70
:103FF800800E646FBF0E656FDAEC1CF060C09CF039
:1040080061C09DF062C09EF000019F07D8A0A00784
:104018009CC090F09DC091F09EC092F0BF0E936F2F
:104028007E0E946F000E966F080E956FA5EC22F029
:1040380090C09CF091C09DF092C09EF0720E00015D
:10404800846F310E856F3F0E866F9FC022F0A0C02F
:1040580023F047EC2BF022C081F023C082F024C06B
:1040680083F0CBEC20F081C060F082C061F083C0A7
:1040780062F09CC063F09DC064F09EC065F0DAEC0D
:104088001CF060C09CF061C09DF062C09EF0120000
:104098001CC020F0216A226A1B34203601E32180EB
:1040A8002050286E2850D8A409D0000E1A6E000E91
:1040B8001B6E000E1C6E000E1D6E12001FC020F03D
:1040C800216A226A1E34203601E321802050276E9F
:1040D8002750D8B4EAD71B8EFF0E1A16FF0E1B16F0
:1040E800000E1C161E8EFF0E1D16FF0E1E16000E4D
:1040F8001F16000E236E000E246E000E256E000E95
:10410800266E7F0E285E2750980F285E180E276EA1
:10411800D89023362436253626361D501A5C1E5074
:104128001B581F501C58D8A007D01D501A5E1E508F
:104138001B5A1F501C5A2380D8901A361B361C361F
:10414800272EE6D728AE0DD02850800A970FD8A082
:10415800ACD7D8902632253224322332283EF9D7DC
:104168000DD0170E286407D0A0D7D8902336243650
:104178002536263628062850D8A4F7D723C01AF0A3
:1041880024C01BF025C01CF026C01DF0120083C0FF
:1041980087F00001886B896B8235873701E3888156
:1041A80087518A6F8A51D8A407D0000E816F000EFC
:1041B800826F000E836F120086C087F0886B896B50
:1041C8008535873701E3888187518F6F8F51D8A450
:1041D80007D0000E816F000E826F000E836F1200F1
:1041E8008F517B0F8A2783C08FF086518F1B800EDB
:1041F8008F17828F858FFF0E8417FF0E8517000E8D
:104208008617000E8B6F000E8C6F000E8D6F070ED9
:104218008E6F81A106D084518B2785518C238651BE
:104228008D23D890833382338133D8908437853770
:1042380086378E2FEED7090E8E6F81A106D0845156
:104248008B2785518C2386518D23D89083338233D5
:104258008133D8908D338C338B338E2FEED78BC030
:104268001AF08CC01BF08DC01CF08AC01DF08FC0E6
:104278001EF004EC25F01AC081F01BC082F01CC0AF
:1042880083F012001C341D34256E2550D8A409D0A3
:10429800000E1A6E000E1B6E000E1C6E000E1D6EB8
:1042A80012001F342034246E2450D8B4F1D71C8E49
:1042B800FF0E1A16FF0E1B16FF0E1C16000E1D16FB
:1042C8001F8EFF0E1D16FF0E1E16FF0E1F16000E68
:1042D8002016000E206E000E216E000E226E000EBB
:1042E800236E7F0E255E2450A00F255E200E246EBF
:1042F800D89020362136223623361D501A5C1E509F
:104308001B581F501C5820501D58D8A009D01D50AC
:104318001A5E1E501B5A1F501C5A20501D5A2080CE
:10432800D8901A361B361C361D36242EE1D725AEFA
:104338000DD02550800A9F0FD8A0AAD7D890233235
:10434800223221322032253EF9D70DD01F0E2564A6
:1043580007D09ED7D8902036213622362336250618
:104368002550D8A4F7D720C01AF021C01BF022C0CE
:104378001CF023C01DF0120074C078F00001796BA6
:104388007A6B7335783701E3798178517F6F7F5184
:10439800D8A407D0000E726F000E736F000E746FF2
:1043A800120077C078F0796B7A6B7635783701E34D
:1043B80079817851806F8051D8A407D0000E726F30
:1043C800000E736F000E746F1200000E7C6F000EEB
:1043D8007D6F000E7E6F8051890F7F5F74C080F003
:1043E8007751801B800E8017738FFF0E7217FF0E98
:1043F8007317000E7417768FFF0E7517FF0E76175A
:10440800000E7717180E7B6FD8907C377D377E3774
:104418007551725D7651735977517459D8A007D088
:104428007551725F7651735B7751745B7C81D8905C
:104438007237733774377B2FE7D77CC01AF07DC08B
:104448001BF07EC01CF07FC01DF080C01EF004EC85
:1044580025F01AC072F01BC073F01CC074F0120073
:10446800B0C01AF0B1C01BF0B2C01CF0B60E1D6E81
:10447800000E1E6EAAEC25F00001B7AF10D0B2AF47
:1044880007D0000EB06F800EB16FBF0EB26F120072
:10449800000EB06F000EB16F000EB26F1200B75170
:1044A80004E1150EB65DD8A007D0B0C0B0F0B1C019
:1044B800B1F0B2C0B2F01200B0C097F0B1C098F03D
:1044C800B2C099F07DEC23F097C0A6F098C0A7F091
:1044D80099C0A8F09AC0A9F072EC26F0A6C0B3F073
:1044E800A7C0B4F0A8C0B5F0B0C01AF0B1C01BF0B6
:1044F800B2C01CF0B3C01DF0B4C01EF0B5C01FF0B0
:104508005FEC27F0D8B016D0B3C060F0B4C061F04B
:10451800B5C062F0000E0001636F800E646FBF0EBD
:10452800656FDAEC1CF060C0B0F061C0B1F062C039
:10453800B2F01200B3C0B0F0B4C0B1F0B5C0B2F080
:10454800120095C026F096C027F0000E296E030EC3
:10455800286E91EC2CF093C097F094C098F02650F8
:10456800000197272750982397C0F6FF98C0F7FFB8
:104578000900F5CF99F00900F5CF9AF00A00F5CFB8
:104588009BF040D099C084F09AC085F09BC086F01B
:1045980090C081F091C082F092C083F0CBEC20F003
:1045A80081C060F082C061F083C062F0000E296EA5
:1045B800030E286E00019507D8A0960795C026F02F
:1045C80096C027F091EC2CF093C097F094C098F027
:1045D8002650000197272750982397C0F6FF98C0C8
:1045E800F7FF0900F5CF63F00900F5CF64F00A0082
:1045F800F5CF65F0DAEC1CF060C099F061C09AF074
:1046080062C09BF0000195519611D8A4BBD799C000
:1046180090F09AC091F09BC092F0120058EC2CF0E8
:104628001AC06FFF6DB0FED7030E436EE80E426EE0
:1046380003D04206D8A04306A4AE43BE05D04350DB
:10464800F8E14204D8B0F5D7A49E1CC06FFF6DB046
:10465800FED7030E436EE80E426E03D04206D8A082
:104668004306A4AE43BE05D04350F8E14204D8B097
:10467800F5D7A49E6BEC2CF01A286F6E030E436ED0
:10468800E80E426E03D04206D8A04306A4AE43BE4D
:1046980005D04350F8E14204D8B0F5D7A49E6B8604
:1046A800030E436EE80E426E03D04206D8A04306BE
:1046B800A4AE43BE05D04350F8E14204D8B0F5D7C4
:1046C800A49E6B8A6B88030E436EE80E426E03D07D
:1046D8004206D8A043066BB843BE05D04350F8E164
:1046E8004204D8B0F5D7DBEC29F06FCF1AF01B6A7B
:1046F800120099C09BF000019C6B9D6B98359B370D
:1047080001E39C819B51A56FA551D8A409D0000E47
:10471800976F000E986F000E996F000E9A6F120037
:10472800170E9B6F97C09CF098C09DF099C09EF0A3
:104738009B299F6F04D0D8909E339D339C339F2F25
:10474800FAD700019C51A06F988FFF0E9717FF0EA4
:104758009817000E99179751A16F9851A26F995108
:10476800A36FA46B8E0EA55FA5AF0DD0A551800ACF
:104778008F0FD8A0CCD7D890A433A333A233A133BA
:10478800A53FF9D70DD0170EA56507D0C0D7D8908B
:10479800A137A237A337A437A507A551D8A4F7D7BF
:1047A800A051D8B408D0A41FA31FA21FA16D000E4A
:1047B800A223A323A423A1C097F0A2C098F0A3C06A
:1047C80099F0A4C09AF0120000019C519D119E110D
:1047D800D8A407D0000E9C6F000E9D6F000E9E6F30
:1047E80012009E517F0BA16FA26BD890A137A23700
:1047F800A1519F27A251A0239DAF03D0A16BA12B4C
:1048080002D00001A16BA1519F27000EA023A0AFE9
:104818000DD0000E0101326F220E316F000E000123
:104828009C6F000E9D6F000E9E6F1200A0BF19D0E6
:10483800A005D8A016D0000E0101326F220E316FEC
:1048480000019EAF07D0FF0E9C6F7F0E9D6FFF0E7D
:104858009E6F1200FF0E9C6F7F0E9D6F7F0E9E6FE6
:104868001200A035A031A26F9F31A16F9E51A119EE
:10487800800BA1199E6F9FC0A1F0010EA117A13353
:10488800A1339D51A1197F0BA1199D6F9CC09CF06C
:104898009DC09DF09EC09EF01200CE0EF66E520E88
:1048A800F76E000EF86E02EE00F010EE50F0090000
:1048B800F5CFEEFFE550E150FAE11E0EF66E5B0E05
:1048C800F76E000EF86E01EE84F010EE04F00900A9
:1048D800F5CFEEFFE550E150FAE1390EF66E5B0ECA
:1048E800F76E000EF86E0900F5CFFEF00900F5CF5F
:1048F800FFF0360EF66E5B0EF76E000EF86E0900CE
:10490800F5CF42F00900F5CF43F00900F5CF44F0A8
:1049180002EE50F03F0EEE6AE806FDE101EE00F00F
:10492800650EEE6AE806FDE100EEDBF0230EEE6AA6
:10493800E806FDE100EE2CF0160EEE6AE806FDE151
:1049480045904592000EF86E000161EF18F06FEC8B
:104958001EF00009D8B412000001FE05FF11D8A40A
:1049680019D07EEC2CF0C90E0001606F7F0E616FCC
:10497800010E626F20EC13F00B0E0001736F260E10
:10498800726F5D0EE82EFED7722FFCD7732FFAD701
:1049980000D033D0020EFE19FF11D8A40CD07EEC43
:1049A8002CF0D10E0001606F7F0E616F010E626FF7
:1049B80020EC13F0E1D7030EFE19FF11D8A40CD098
:1049C8007EEC2CF0D90E0001606F7F0E616F010E36
:1049D800626F20EC13F0D0D7040EFE19FF11D8A493
:1049E8000CD07EEC2CF0E10E0001606F7F0E616F41
:1049F800010E626F20EC13F0BFD76FEC1EF01200AF
:104A08001D50D8B405D01A501B101C10D8A40CD0B7
:104A1800000E1A6E000E1B6E000E1C6E12001D2A70
:104A2800D8901C321B321A32000E1A141F6E000E58
:104A38001B14206EFE0E1C14216E1F502010211016
:104A4800D8B40CD0ECD71D2A010E1A26000E1B2252
:104A5800000E1C22D8901C321B321A32000E1A1477
:104A68001F6E000E1B14206EFF0E1C14216E1F50AB
:104A780020102110D8B406D0E6D71D06D8901A36D3
:104A88001B361C361BBE03D0020E1D60F6D71DA0B8
:104A98001B9ED8901D321D501C121E50D8A41C8E6F
:104AA8001AC01AF01BC01BF01CC01CF01200000E2C
:104AB8003B24D96EDA6A010EDA22000EDF6EABA44F
:104AC80015D0000E3B24D96EDA6A010EDA220101F4
:104AD800DF8201D80BD005000201FA6E9351FD6EFA
:104AE8009451FE6EF850FF6EFA501200ABA215D02A
:104AF800000E3B24D96EDA6A010EDA220101DF8446
:104B080001D80BD005000201FA6E9151FD6E925149
:104B1800FE6EF850FF6EFA501200000E3B24D96E5C
:104B2800DA6A010EDA22DF50D8B40DD001D81200AB
:104B380005000201FA6E8F51FD6E9051FE6EF8501D
:104B4800FF6EFA5012001AEC10F012001A501B10E7
:104B58001C10D8A40FD01DC0D9FF1EC0DAFF000E4C
:104B6800DE6E000EDD6E000E1A6E000E1B6E000E5D
:104B78001C6E12001C507F0B1F6E206AD8901F36C7
:104B880020361DC0D9FF1EC0DAFF1FC0DEFF20C0BF
:104B9800DDFF1BAE03D01F6A1F2A01D01F6A1F50FA
:104BA8001DC0D9FF1EC0DAFFDE12000EDD121DC0C7
:104BB800D9FF1EC0DAFF820EDE26FF0EDD221C5052
:104BC800800B3F091C6E1B9E1AC01AF01BC01BF0FD
:104BD8001CC01CF01200000E256E23AE06D0226CFD
:104BE800231ED8B0232A010E256E21AE06D0206CD4
:104BF800211ED8B0212A010E251A000E276E000E9C
:104C0800266E22502310D8B41CD0010E246E04D076
:104C1800D89022362336242A23AEFAD7D8902636BF
:104C280027362250205C23502158D8A005D0225086
:104C3800205E2350215A2680D89023322232242EF7
:104C4800EDD72550D8B404D0266C271ED8B0272A13
:104C580026C020F027C021F01200000E226E000EA0
:104C6800236E000E246E000E256E1E501F1020109D
:104C78002110D8B42AD0010E266E06D0D8901E3640
:104C88001F3620362136262A21AEF8D7D89022366C
:104C98002336243625361E501A5C1F501B582050C8
:104CA8001C5821501D58D8A009D01E501A5E1F50FC
:104CB8001B5A20501C5A21501D5A2280D89021324C
:104CC80020321F321E32262EE1D722C01AF023C00E
:104CD8001BF024C01CF025C01DF01200000E0001BE
:104CE800AF6F8E0EAE6FA9AF11D0A91FA81FA71F57
:104CF800A66D000EA723A823A923010EAF6F06D027
:104D0800D890A933A833A733A633AE2B000EA61527
:104D1800AA6F000EA715AB6F000EA815AC6FFF0E9B
:104D2800A915AD6FAA51AB11AC11AD11D8A4E8D734
:104D3800A6C01AF0A7C01BF0A8C01CF0AEC01DF09A
:104D4800AFC01EF004EC25F01AC0A6F01BC0A7F0F7
:104D58001CC0A8F012009D9AB60E1A6E4A0E1B6E61
:104D680063EC2DF09D98300E1A6E580E1B6E5EEC9B
:104D78002DF0080EB86E900EAB6E240EAC6ECF0EF2
:104D8800AF6E000EB06E3E0E1A6E5B0E1B6E6DECB3
:104D98002DF0120E1A6E5B0E1B6E68EC2DF0180EBD
:104DA8001A6E5B0E1B6E72EC2DF0000E01014B6F3C
:104DB800000E3D6E000E3C6E080E836F000E3B6EBB
:104DC800000E3A6E000E0001FD6F9D8A12002B0E38
:104DD8000001C96F7F0ECA6F2AEC2BF0060E000186
:104DE800DA6F130ED96FAD0EE82EFED7D92FFCD788
:104DF800DA2FFAD700D0DA0E0001C96F7E0ECA6F1B
:104E08006BC1CBF06CC1CCF06DC1CDF06EC1CEF0F2
:104E18006FC1CFF070C1D0F071C1D1F072C1D2F0C2
:104E280073C1D3F074C1D4F075C1D5F076C1D6F092
:104E380077C1D7F078C1D8F02AEC2BF077EC2DF0B9
:104E48001200000E1B6EC80E1A6E000E1D6E030EA9
:104E58001C6E12EC23F01AC0EAF01BC0EBF0070E30
:104E68000001EA19EB11D8A404D0000EEC6F000E73
:104E78001200030EEA19EB11D8A41BD0000EED6F37
:104E88007EEC2CF0A80E0001606F7F0E616F010EA2
:104E9800626F20EC13F00B0E00016D6F260E6C6F25
:104EA8005D0EE82EFED76C2FFCD76D2FFAD700D0F9
:104EB800DED7010E12001CAE0FD0000E206E000EC1
:104EC800216E800E226E1A50205C1A6E1B502158DB
:104ED8001B6E1C5022581C6E1FAE0FD0000E206E89
:104EE800000E216E800E226E1D50205C1D6E1E501D
:104EF80021581E6E1F5022581F6E000E1A1A000EDF
:104F08001B1A800E1C1A000E1D1A000E1E1A800E87
:104F18001F1A1D501A5C1E501B581F501C58D8B021
:104F280002D0D8901200D8801200000E1F6E1BAE5F
:104F380006D01A6C1B1ED8B01B2A010E1F6E1DAEA0
:104F480004D01C6C1D1ED8B01D2A1C501D10D8B4CE
:104F580018D0010E1E6E04D0D8901C361D361E2A9D
:104F68001DAEFAD71C501A5C1D501B58D8A004D08F
:104F78001C501A5E1D501B5AD8901D321C321E2E12
:104F8800F1D71F50D8B404D01A6C1B1ED8B01B2AF6
:104F98001AC01AF01BC01BF012001E501F10201060
:104FA8002110D8B424D0010E226E06D0D8901E3617
:104FB8001F3620362136222A21AEF8D71E501A5C19
:104FC8001F501B5820501C5821501D58D8A008D0DD
:104FD8001E501A5E1F501B5A20501C5A21501D5A31
:104FE800D890213220321F321E32222EE7D71AC023
:104FF8001AF01BC01BF01CC01CF01DC01DF01200D5
:10500800256E25C039F021C038F022C047F1030EC3
:10501800FFEC29F0030EFFEC29F0030EFFEC29F05A
:10502800020EFFEC29F0280EFFEC29F00C0EFFEC25
:1050380029F0010EFFEC29F0060EFFEC29F0030E13
:10504800246E080E236E770EE82EFED7232EFCD78B
:10505800242EFAD700F0010EFFEC29F0020EFFEC27
:1050680029F012008E0E2A6E06D0D89025322432EE
:10507800233222322A2A000E2214266E000E23140E
:10508800276E000E2414286EFF0E2514296E265054
:10509800271028102910D8A4E8D722C01AF023C056
:1050A8001BF024C01CF02AC01DF0000E1E6E04EC7C
:1050B80025F01AC022F01BC023F01CC024F01200F7
:1050C80034503510D8A407D08C9E8C8A8C8C8C8850
:1050D800344A352A120034043510D8A405D08C88F7
:1050E8008C8E8C8A8C9CF4D7020E34183510D8A478
:1050F80005D08C888C8C8C9A8C8EEAD7030E341849
:105108003510D8A412008C8E8C988C8C8C8A000E4A
:10511800356E000E346E12001E041F10D8A406D07F
:10512800010E1B6EF40E1A6ECEEC2BF0020E1E183A
:105138001F10D8A406D0010E1B6E4A0E1A6ECEECB4
:105148002BF0030E1E181F10D8A406D0000E1B6EDD
:10515800AA0E1A6ECEEC2BF0040E1E181F10D8A43F
:105168001200000E1B6E000E1A6ECEEC2BF0120011
:1051780034503510D8A407D08C9E8C8A8C8C8C889F
:10518800344A352A120034043510D8A405D08C8846
:105198008C8E8C8A8C9CF4D7020E34183510D8A4C7
:1051A80005D08C888C8C8C9A8C8EEAD7030E341898
:1051B8003510D8A412008C8E8C988C8C8C8A000E9A
:1051C800356E000E346E120034503510D8A407D056
:1051D8008C988C8A8C8C8C8E344A352A1200340434
:1051E8003510D8A405D08C888C8E8C8C8C9AF4D7EA
:1051F800020E34183510D8A404D08C888C8A8C9C64
:10520800EAD7030E34183510D8A412008C888C9E67
:105218008C8C8C8A000E356E000E346E1200345061
:105228003510D8A407D08C988C8A8C8C8C8E344AF4
:10523800352A120034043510D8A405D08C888C8EF9
:105248008C8C8C9AF4D7020E34183510D8A404D05C
:105258008C888C8A8C9CEAD7030E34183510D8A415
:1052680012008C888C9E8C8C8C8A000E356E000EF9
:10527800346E1200000E256E000E246E215022108E
:10528800D8B41CD0010E236E04D0D8902136223613
:10529800232A22AEFAD7D8902436253621501F5C0F
:1052A80022502058D8A005D021501F5E2250205AE5
:1052B8002480D89022322132232EEDD724C01FF02B
:1052C80025C020F0120054656D70657261747572A6
:1052D8006520DF430A0044697374616E6365203397
:1052E800286D290A0044697374616E636520322849
:1052F8006D290A0044697374616E63652031286DF5
:10530800290A004C6967687420284C7578290A00B6
:10531800F6B7331D76391E6E1E38F00BF00B1F6E74
:105328001E50F00B206E7FEC2DF0000E1C6E3950D5
:1053380042EC2DF020504410050949EC2DF0205086
:105348004410010949EC2DF01F504410050949EC9F
:105358002DF01F504410010949EC2DF07BEC2DF085
:105368001200A19281C101F082C102F0D7EC2CF0A9
:105378000101334B342B580E331909E13405D8A4F5
:1053880006D0010E486F000E346F000E336F7F5148
:105398008011D8B4120001D812000500FA6E7F51AE
:1053A800FD6E8051FE6EF850FF6EFA5012006B844D
:1053B800030E436EE80E426E03D04206D8A04306A1
:1053C800A4AE43BE05D04350F8E14204D8B0F5D7A7
:1053D800A49E030E436EE80E426E03D04206D8A088
:1053E80043066BA4120043BE12004350F7E1420487
:1053F800D8A01200F3D71E6E1E38F00BF00B1F6EEC
:105408001E50F00B206E7FEC2DF0000E1C6E3950F4
:1054180042EC2DF020504410040949EC2DF02050A6
:10542800441049EC2DF01F504410040949EC2DF0AC
:105438001F50441049EC2DF07BEC2DF01200000EAB
:105448008D6E000E8C6E000E896E000E8A6E000E38
:105458008B6E030E966EFE0E926EAC0E936EBF0EA2
:10546800946E0F0E956EFC0E0F013B6F240E3A6F73
:10547800180E396F070E3C6F2F0E386F000E616ED5
:10548800F18E1200C9C0D2F0CAC0D3F0000E0001DC
:10549800D46F000ED56FCD0ED06F000ED16FD20E27
:1054A800A66F000EA76FCBC0A8F0CCC0A9F0D00E95
:1054B800AA6F000EAB6F22EC09F0D2C0D9FFD3C09F
:1054C800DAFF000EDF6E12001AC01EF01BC01FF0BC
:1054D80002D01E4A1F2A1EC0D9FF1FC0DAFFDF50A4
:1054E800D8B405D0F6D71E4A1F2A1C4A1D2A1CC04C
:1054F800D9FF1DC0DAFF1EC0E1FF1FC0E2FFDFCFEA
:10550800E7FFE750D8B41200EED71C501D10D8B4EE
:1055180018D0010E1E6E04D0D8901C361D361E2AD7
:105528001DAEFAD71C501A5C1D501B58D8A004D0C9
:105538001C501A5E1D501B5AD8901D321C321E2E4C
:10554800F1D71AC01AF01BC01BF0120000016F51EE
:1055580070117111D8B406D0000E6F1B000E701BAD
:10556800800E711B6CC060F06DC061F06EC062F09F
:105578006FC063F070C064F071C065F0DAEC1CF0C5
:1055880060C06CF061C06DF062C06EF01200036E16
:105598006B84010120EE03F03B51D9263C51DA22FD
:1055A800DE50DE10D8B410D020EE03F03B51D926DF
:1055B8003C51DA22DECF01F0DDCF02F001C0D9FF85
:1055C80002C0DAFF03C0DFFF000E0001F16F120016
:1055D800036EC584010120EE03F04151D9264251E2
:1055E800DA22DE50DE10D8B410D020EE03F041519C
:1055F800D9264251DA22DECF01F0DDCF02F001C018
:10560800D9FF02C0DAFF03C0DFFF000E0001F56F0B
:105618001200216E10D0C00EFFEC29F01200940E7B
:10562800FFEC29F01200D40EFFEC29F01200800ED6
:10563800FFEC29F012002150020AD8B4ECD7010A75
:10564800D8B4EDD7070AD8B4EED7F1D7000E0101C8
:10565800676F000E686F9E0E696F5A0E6A6FCB0EE9
:10566800656F000E666F670E0001A66F010EA76FCB
:10567800C9C0A8F0CAC0A9F0650EAA6F010EAB6F29
:1056880022EC09F01200000E256E23AE06D0226C23
:10569800231ED8B0232A010E256E22C01AF023C07B
:1056A8001BF01C6A8E0E1D6E25C01EF004EC25F042
:1056B8001AC022F01BC023F01CC024F012001A6E7E
:1056C80001018351D8B4FCD79DB803D01AC0ADFFEF
:1056D80010D09D98780E3D24D96EDA6A020EDA222F
:1056E8001AC0DFFF3D2A070E3D6402D0000E3D6E52
:1056F80083079D8812001E6E1E50D8A404D0000E89
:10570800206E000E03D0000E206E080E1F6E1FC004
:1057180044F07FEC2DF0000E1C6E395042EC2DF059
:10572800445049EC2DF07BEC2DF01200510E010194
:105738000A6F010E0B6F510E086F010E096F0C8373
:105748000C91000E0E6F800E6D6E280E6C6E000EA2
:10575800696E130E6E6EA49EA49CA38EA38C120079
:10576800600E0101116F010E126F600E0F6F010EB6
:10577800106F13831391000E156F000EC76E280E5D
:10578800C66E000ECB6E130EC86E9E96A1969D86B1
:10579800A08612001AC01CF01BC01DF0D8901D3244
:1057A8001C32D8901D321C321C500F01556F1AC084
:1057B8001CF0030E1C161C3AF00E1C165451CF0B8D
:1057C8001C10546F120001C003F002C004F0D890FE
:1057D80004320332D8900432033203500F01556F5C
:1057E80001C003F0030E0316033AF00E03165451DA
:1057F800CF0B0310546F12001E6E1EC01CF01C4607
:105808001C46C2501C18830B1C18C26EC280C28270
:10581800C2B2FED7C4501D6E1C6AC3501C241A6E37
:10582800000E1D201B6E1200080E0101836110D0AE
:10583800780E3C24D96EDA6A020EDA22DF50AD6E99
:105848003C2A070E3C6402D0000E3C6E832B1200EB
:105858009D98120095EC2DF023EC2AF03BEC2DF0EE
:10586800B4EC2BF09AEC2BF001EC2DF043EC2CF07F
:1058780034EC2DF00CEC2DF0AFEC26F01200000EFD
:10588800B46E000EB36E000EB26EB2CF81F1B3CF1C
:1058980082F1A192A0823C0E1A6E5B0E1B6E59EC2F
:1058A8002DF0310EB16E12006B80030E436EE80EC0
:1058B800426E03D04206D8A04306A4AE43BE05D02C
:1058C8004350F8E14204D8B0F5D7A49E12006B8289
:1058D800030E436EE80E426E03D04206D8A043067C
:1058E800A4AE43BE05D04350F8E14204D8B0F5D782
:1058F800A49E1200010EFFEC29F0020EFFEC29F025
:10590800030E226E080E216E770EE82EFED7212E8A
:10591800FCD7222EFAD700F0120026502802F3CF27
:105928002AF0F4CF2BF026502902F3502B262750CB
:105938002802F3502B262AC026F02BC027F012008D
:1059480022C01AF023C01BF01C6A8E0E1D6E000EBA
:105958001E6E04EC25F01AC022F01BC023F01CC0F8
:1059680024F012001A501B101C10D8B406D0000ED8
:105978001A1A000E1B1A800E1C1A1AC01AF01BC025
:105988001BF01CC01CF012001C6E000E1B6E3A0EA1
:105998001C6005D02F0E1C6402D0010E1B6E1BC0AC
:1059A8001AF01A301200B1A407D0B1900250B36EA9
:1059B80001C0B2FFB18012000250B36E01C0B2FF45
:1059C8001200050E01013D27000E3E230001F02FB5
:1059D80003D0040EF16F1200010EF16F1200050ED4
:1059E80001014327000E44230001F42F03D0040EC5
:1059F800F56F1200010EF56F1200010EC26E000E57
:105A0800C16E950EC06E000EC36E000EC46E1200FD
:105A18003C0E0F01546F7F0E556F000E566FF30E3C
:105A280048171200C7B4FED7C5CF1AF01F0E1A16B2
:105A3800D8B41200F7D78A8C060EE82EFED700D00D
:105A48008A9C12008A88060EE82EFED700D08A9813
:105A580012008A82060EE82EFED700D08A92120023
:105A6800BB68000EBC6E9E92040EBA6E1200600EE9
:105A7800D36E040ED26E000E9B6E12001D6E1D506A
:105A88001D241C1049EC2DF012001B6E16EC2DF095
:105A98001BC0C9FF12001B6E1B5063EC2BF01200D9
:105AA80036C01AF037C01BF012001AC07FF11BC0B5
:105AB80080F112001AC097F21BC098F212001AC0A7
:105AC80095F21BC096F212001AC091F21BC092F216
